{
  "contractName": "EdCert",
  "abi": [
    {
      "constant": true,
      "inputs": [],
      "name": "name",
      "outputs": [
        {
          "name": "",
          "type": "string"
        }
      ],
      "payable": false,
      "stateMutability": "view",
      "type": "function",
      "signature": "0x06fdde03"
    },
    {
      "constant": true,
      "inputs": [
        {
          "name": "",
          "type": "uint256"
        }
      ],
      "name": "images",
      "outputs": [
        {
          "name": "id",
          "type": "uint256"
        },
        {
          "name": "hash",
          "type": "string"
        },
        {
          "name": "student",
          "type": "string"
        },
        {
          "name": "author",
          "type": "address"
        }
      ],
      "payable": false,
      "stateMutability": "view",
      "type": "function",
      "signature": "0x84856482"
    },
    {
      "constant": true,
      "inputs": [],
      "name": "imageCount",
      "outputs": [
        {
          "name": "",
          "type": "uint256"
        }
      ],
      "payable": false,
      "stateMutability": "view",
      "type": "function",
      "signature": "0x92053b63"
    },
    {
      "inputs": [],
      "payable": false,
      "stateMutability": "nonpayable",
      "type": "constructor",
      "signature": "constructor"
    },
    {
      "anonymous": false,
      "inputs": [
        {
          "indexed": false,
          "name": "id",
          "type": "uint256"
        },
        {
          "indexed": false,
          "name": "hash",
          "type": "string"
        },
        {
          "indexed": false,
          "name": "student",
          "type": "string"
        },
        {
          "indexed": false,
          "name": "author",
          "type": "address"
        }
      ],
      "name": "ImageCreated",
      "type": "event",
      "signature": "0xb82a9f3a70bc97d2ca962d6c417b770c2158b2014d3f028d4de74b315692d4c7"
    },
    {
      "constant": false,
      "inputs": [
        {
          "name": "_imgHash",
          "type": "string"
        },
        {
          "name": "_student",
          "type": "string"
        }
      ],
      "name": "uploadImage",
      "outputs": [],
      "payable": false,
      "stateMutability": "nonpayable",
      "type": "function",
      "signature": "0xa91b8314"
    }
  ],
  "bytecode": "0x6080604052600060015534801561001557600080fd5b506040805190810160405280600681526020017f456443657274000000000000000000000000000000000000000000000000000081525060009080519060200190610061929190610067565b5061010c565b828054600181600116156101000203166002900490600052602060002090601f016020900481019282601f106100a857805160ff19168380011785556100d6565b828001600101855582156100d6579182015b828111156100d55782518255916020019190600101906100ba565b5b5090506100e391906100e7565b5090565b61010991905b808211156101055760008160009055506001016100ed565b5090565b90565b6109668061011b6000396000f3fe608060405260043610610062576000357c0100000000000000000000000000000000000000000000000000000000900463ffffffff16806306fdde031461006757806384856482146100f757806392053b6314610251578063a91b83141461027c575b600080fd5b34801561007357600080fd5b5061007c6103db565b6040518080602001828103825283818151815260200191508051906020019080838360005b838110156100bc5780820151818401526020810190506100a1565b50505050905090810190601f1680156100e95780820380516001836020036101000a031916815260200191505b509250505060405180910390f35b34801561010357600080fd5b506101306004803603602081101561011a57600080fd5b8101908080359060200190929190505050610479565b6040518085815260200180602001806020018473ffffffffffffffffffffffffffffffffffffffff1673ffffffffffffffffffffffffffffffffffffffff168152602001838103835286818151815260200191508051906020019080838360005b838110156101ac578082015181840152602081019050610191565b50505050905090810190601f1680156101d95780820380516001836020036101000a031916815260200191505b50838103825285818151815260200191508051906020019080838360005b838110156102125780820151818401526020810190506101f7565b50505050905090810190601f16801561023f5780820380516001836020036101000a031916815260200191505b50965050505050505060405180910390f35b34801561025d57600080fd5b506102666105f9565b6040518082815260200191505060405180910390f35b34801561028857600080fd5b506103d96004803603604081101561029f57600080fd5b81019080803590602001906401000000008111156102bc57600080fd5b8201836020820111156102ce57600080fd5b803590602001918460018302840111640100000000831117156102f057600080fd5b91908080601f016020809104026020016040519081016040528093929190818152602001838380828437600081840152601f19601f8201169050808301925050505050505091929192908035906020019064010000000081111561035357600080fd5b82018360208201111561036557600080fd5b8035906020019184600183028401116401000000008311171561038757600080fd5b91908080601f016020809104026020016040519081016040528093929190818152602001838380828437600081840152601f19601f8201169050808301925050505050505091929192905050506105ff565b005b60008054600181600116156101000203166002900480601f0160208091040260200160405190810160405280929190818152602001828054600181600116156101000203166002900480156104715780601f1061044657610100808354040283529160200191610471565b820191906000526020600020905b81548152906001019060200180831161045457829003601f168201915b505050505081565b6002602052806000526040600020600091509050806000015490806001018054600181600116156101000203166002900480601f01602080910402602001604051908101604052809291908181526020018280546001816001161561010002031660029004801561052b5780601f106105005761010080835404028352916020019161052b565b820191906000526020600020905b81548152906001019060200180831161050e57829003601f168201915b505050505090806002018054600181600116156101000203166002900480601f0160208091040260200160405190810160405280929190818152602001828054600181600116156101000203166002900480156105c95780601f1061059e576101008083540402835291602001916105c9565b820191906000526020600020905b8154815290600101906020018083116105ac57829003601f168201915b5050505050908060030160009054906101000a900473ffffffffffffffffffffffffffffffffffffffff16905084565b60015481565b6000825111151561060f57600080fd5b6000815111151561061f57600080fd5b600073ffffffffffffffffffffffffffffffffffffffff163373ffffffffffffffffffffffffffffffffffffffff161415151561065b57600080fd5b60016000815480929190600101919050555060806040519081016040528060015481526020018381526020018281526020013373ffffffffffffffffffffffffffffffffffffffff168152506002600060015481526020019081526020016000206000820151816000015560208201518160010190805190602001906106e2929190610895565b5060408201518160020190805190602001906106ff929190610895565b5060608201518160030160006101000a81548173ffffffffffffffffffffffffffffffffffffffff021916908373ffffffffffffffffffffffffffffffffffffffff1602179055509050507fb82a9f3a70bc97d2ca962d6c417b770c2158b2014d3f028d4de74b315692d4c76001548383336040518085815260200180602001806020018473ffffffffffffffffffffffffffffffffffffffff1673ffffffffffffffffffffffffffffffffffffffff168152602001838103835286818151815260200191508051906020019080838360005b838110156107ed5780820151818401526020810190506107d2565b50505050905090810190601f16801561081a5780820380516001836020036101000a031916815260200191505b50838103825285818151815260200191508051906020019080838360005b83811015610853578082015181840152602081019050610838565b50505050905090810190601f1680156108805780820380516001836020036101000a031916815260200191505b50965050505050505060405180910390a15050565b828054600181600116156101000203166002900490600052602060002090601f016020900481019282601f106108d657805160ff1916838001178555610904565b82800160010185558215610904579182015b828111156109035782518255916020019190600101906108e8565b5b5090506109119190610915565b5090565b61093791905b8082111561093357600081600090555060010161091b565b5090565b9056fea165627a7a72305820b9fdf0a21468941a46e4b7d9f496961c0da997c81362aa151c926db6780b0b690029",
  "source": "pragma solidity ^0.5.0;\r\n\r\ncontract EdCert {\r\n  string public name;\r\n  uint public imageCount = 0;\r\n  mapping(uint => Image) public images;\r\n\r\n  struct Image {\r\n    uint id;\r\n    string hash;\r\n    string student;\r\n    address payable author;\r\n  }\r\n\r\n  event ImageCreated(\r\n    uint id,\r\n    string hash,\r\n    string student,\r\n    address payable author\r\n  );\r\n\r\n\r\n  constructor() public {\r\n    name = \"EdCert\";\r\n  }\r\n\r\n  function uploadImage(string memory _imgHash, string memory _student) public {\r\n    // Make sure the image hash exists\r\n    require(bytes(_imgHash).length > 0);\r\n    // Make sure student wallet address exists\r\n    require(bytes(_student).length > 0);\r\n    // Make sure uploader address exists\r\n    require(msg.sender!=address(0));\r\n\r\n    // Increment image id\r\n    imageCount ++;\r\n\r\n    // Add Image to the contract\r\n    images[imageCount] = Image(imageCount, _imgHash, _student, msg.sender);\r\n    // Trigger an event\r\n    emit ImageCreated(imageCount, _imgHash, _student, msg.sender);\r\n  }\r\n\r\n\r\n}\r\n",
  "sourcePath": "C:/users/susan/dapps/edcert/src/contracts/EdCert.sol",
  "compiler": {
    "name": "solc",
    "version": "0.5.0+commit.1d4f565a.Emscripten.clang"
  },
  "schemaVersion": "3.0.2",
  "updatedAt": "2021-03-05T18:12:04.641Z",
  "devdoc": {
    "methods": {}
  },
  "userdoc": {
    "methods": {}
  }
}